{
  "contractName": "RestoreTokenPresale",
  "abi": [
    {
      "constant": true,
      "inputs": [],
      "name": "saleCap",
      "outputs": [
        {
          "name": "",
          "type": "uint256"
        }
      ],
      "payable": false,
      "stateMutability": "view",
      "type": "function"
    },
    {
      "constant": true,
      "inputs": [],
      "name": "totalContributions",
      "outputs": [
        {
          "name": "",
          "type": "uint256"
        }
      ],
      "payable": false,
      "stateMutability": "view",
      "type": "function"
    },
    {
      "constant": false,
      "inputs": [],
      "name": "endSale",
      "outputs": [],
      "payable": false,
      "stateMutability": "nonpayable",
      "type": "function"
    },
    {
      "constant": true,
      "inputs": [
        {
          "name": "",
          "type": "uint256"
        }
      ],
      "name": "contributors",
      "outputs": [
        {
          "name": "",
          "type": "address"
        }
      ],
      "payable": false,
      "stateMutability": "view",
      "type": "function"
    },
    {
      "constant": false,
      "inputs": [],
      "name": "withdraw",
      "outputs": [],
      "payable": false,
      "stateMutability": "nonpayable",
      "type": "function"
    },
    {
      "constant": true,
      "inputs": [
        {
          "name": "",
          "type": "address"
        }
      ],
      "name": "contributions",
      "outputs": [
        {
          "name": "",
          "type": "uint256"
        }
      ],
      "payable": false,
      "stateMutability": "view",
      "type": "function"
    },
    {
      "constant": true,
      "inputs": [],
      "name": "tokensSold",
      "outputs": [
        {
          "name": "",
          "type": "uint256"
        }
      ],
      "payable": false,
      "stateMutability": "view",
      "type": "function"
    },
    {
      "constant": true,
      "inputs": [],
      "name": "tokenReward",
      "outputs": [
        {
          "name": "",
          "type": "address"
        }
      ],
      "payable": false,
      "stateMutability": "view",
      "type": "function"
    },
    {
      "constant": true,
      "inputs": [],
      "name": "getNumberOfContributors",
      "outputs": [
        {
          "name": "",
          "type": "uint256"
        }
      ],
      "payable": false,
      "stateMutability": "view",
      "type": "function"
    },
    {
      "constant": true,
      "inputs": [],
      "name": "saleEnded",
      "outputs": [
        {
          "name": "",
          "type": "bool"
        }
      ],
      "payable": false,
      "stateMutability": "view",
      "type": "function"
    },
    {
      "constant": true,
      "inputs": [],
      "name": "etherCostOfEachToken",
      "outputs": [
        {
          "name": "",
          "type": "uint256"
        }
      ],
      "payable": false,
      "stateMutability": "view",
      "type": "function"
    },
    {
      "inputs": [
        {
          "name": "_tokenAddress",
          "type": "address"
        },
        {
          "name": "_beneficiary",
          "type": "address"
        }
      ],
      "payable": false,
      "stateMutability": "nonpayable",
      "type": "constructor"
    },
    {
      "payable": true,
      "stateMutability": "payable",
      "type": "fallback"
    },
    {
      "anonymous": false,
      "inputs": [
        {
          "indexed": false,
          "name": "backer",
          "type": "address"
        },
        {
          "indexed": false,
          "name": "amount",
          "type": "uint256"
        },
        {
          "indexed": false,
          "name": "isContribution",
          "type": "bool"
        }
      ],
      "name": "FundTransfer",
      "type": "event"
    }
  ],
  "bytecode": "0x60606040526000600560006101000a81548160ff021916908315150217905550600060065563c6aea008600755341561003757600080fd5b604051604080610c5983398101604052808051906020019091908051906020019091905050336000806101000a81548173ffffffffffffffffffffffffffffffffffffffff021916908373ffffffffffffffffffffffffffffffffffffffff16021790555080600360006101000a81548173ffffffffffffffffffffffffffffffffffffffff021916908373ffffffffffffffffffffffffffffffffffffffff16021790555081600560016101000a81548173ffffffffffffffffffffffffffffffffffffffff021916908373ffffffffffffffffffffffffffffffffffffffff1602179055505050610b2a8061012f6000396000f3006060604052600436106100af576000357c0100000000000000000000000000000000000000000000000000000000900463ffffffff168063078fd9ea1461044257806337c089231461046b578063380d831b146104945780633cb5d100146104a95780633ccfd60b1461050c57806342e94c9014610521578063518ab2a81461056e5780636e66f6e9146105975780638bba143c146105ec5780639b8906ae14610615578063bb070dd614610642575b600080600080600560009054906101000a900460ff161515156100d157600080fd5b600754348115156100de57fe5b0493506000841115156100f057600080fd5b660110d9316ec000846006540110156102675734600160003373ffffffffffffffffffffffffffffffffffffffff1673ffffffffffffffffffffffffffffffffffffffff16815260200190815260200160002060008282540192505081905550346004600082825401925050819055506101693361066b565b83600660008282540192505081905550600560019054906101000a900473ffffffffffffffffffffffffffffffffffffffff1673ffffffffffffffffffffffffffffffffffffffff1663a9059cbb33866000604051602001526040518363ffffffff167c0100000000000000000000000000000000000000000000000000000000028152600401808373ffffffffffffffffffffffffffffffffffffffff1673ffffffffffffffffffffffffffffffffffffffff16815260200182815260200192505050602060405180830381600087803b151561024657600080fd5b6102c65a03f1151561025757600080fd5b505050604051805190505061043c565b600654660110d9316ec0000392506007548302915081340390503373ffffffffffffffffffffffffffffffffffffffff166108fc829081150290604051600060405180830381858888f1935050505015156102c157600080fd5b81600160003373ffffffffffffffffffffffffffffffffffffffff1673ffffffffffffffffffffffffffffffffffffffff16815260200190815260200160002060008282540192505081905550816004600082825401925050819055506103273361066b565b600560019054906101000a900473ffffffffffffffffffffffffffffffffffffffff1673ffffffffffffffffffffffffffffffffffffffff1663a9059cbb33856000604051602001526040518363ffffffff167c0100000000000000000000000000000000000000000000000000000000028152600401808373ffffffffffffffffffffffffffffffffffffffff1673ffffffffffffffffffffffffffffffffffffffff16815260200182815260200192505050602060405180830381600087803b15156103f457600080fd5b6102c65a03f1151561040557600080fd5b5050506040518051905050826006600082825401925050819055506001600560006101000a81548160ff0219169083151502179055505b50505050005b341561044d57600080fd5b610455610774565b6040518082815260200191505060405180910390f35b341561047657600080fd5b61047e61077f565b6040518082815260200191505060405180910390f35b341561049f57600080fd5b6104a7610785565b005b34156104b457600080fd5b6104ca6004808035906020019091905050610928565b604051808273ffffffffffffffffffffffffffffffffffffffff1673ffffffffffffffffffffffffffffffffffffffff16815260200191505060405180910390f35b341561051757600080fd5b61051f610967565b005b341561052c57600080fd5b610558600480803573ffffffffffffffffffffffffffffffffffffffff16906020019091905050610a43565b6040518082815260200191505060405180910390f35b341561057957600080fd5b610581610a5b565b6040518082815260200191505060405180910390f35b34156105a257600080fd5b6105aa610a61565b604051808273ffffffffffffffffffffffffffffffffffffffff1673ffffffffffffffffffffffffffffffffffffffff16815260200191505060405180910390f35b34156105f757600080fd5b6105ff610a87565b6040518082815260200191505060405180910390f35b341561062057600080fd5b610628610a94565b604051808215151515815260200191505060405180910390f35b341561064d57600080fd5b610655610aa7565b6040518082815260200191505060405180910390f35b60008060009150600090505b6002805490508110156107045760028181548110151561069357fe5b906000526020600020900160009054906101000a900473ffffffffffffffffffffffffffffffffffffffff1673ffffffffffffffffffffffffffffffffffffffff168373ffffffffffffffffffffffffffffffffffffffff1614156106f757600191505b8080600101915050610677565b81151561076f576002805480600101828161071f9190610aad565b9160005260206000209001600085909190916101000a81548173ffffffffffffffffffffffffffffffffffffffff021916908373ffffffffffffffffffffffffffffffffffffffff160217905550505b505050565b660110d9316ec00081565b60045481565b6000809054906101000a900473ffffffffffffffffffffffffffffffffffffffff1673ffffffffffffffffffffffffffffffffffffffff163373ffffffffffffffffffffffffffffffffffffffff161415156107e057600080fd5b6000600654660110d9316ec00003111561090b57600560019054906101000a900473ffffffffffffffffffffffffffffffffffffffff1673ffffffffffffffffffffffffffffffffffffffff1663a9059cbb600360009054906101000a900473ffffffffffffffffffffffffffffffffffffffff16600654660110d9316ec000036000604051602001526040518363ffffffff167c0100000000000000000000000000000000000000000000000000000000028152600401808373ffffffffffffffffffffffffffffffffffffffff1673ffffffffffffffffffffffffffffffffffffffff16815260200182815260200192505050602060405180830381600087803b15156108ee57600080fd5b6102c65a03f115156108ff57600080fd5b50505060405180519050505b6001600560006101000a81548160ff021916908315150217905550565b60028181548110151561093757fe5b90600052602060002090016000915054906101000a900473ffffffffffffffffffffffffffffffffffffffff1681565b60008060009054906101000a900473ffffffffffffffffffffffffffffffffffffffff1673ffffffffffffffffffffffffffffffffffffffff163373ffffffffffffffffffffffffffffffffffffffff161415156109c457600080fd5b309050600360009054906101000a900473ffffffffffffffffffffffffffffffffffffffff1673ffffffffffffffffffffffffffffffffffffffff166108fc8273ffffffffffffffffffffffffffffffffffffffff16319081150290604051600060405180830381858888f193505050501515610a4057600080fd5b50565b60016020528060005260406000206000915090505481565b60065481565b600560019054906101000a900473ffffffffffffffffffffffffffffffffffffffff1681565b6000600280549050905090565b600560009054906101000a900460ff1681565b60075481565b815481835581811511610ad457818360005260206000209182019101610ad39190610ad9565b5b505050565b610afb91905b80821115610af7576000816000905550600101610adf565b5090565b905600a165627a7a72305820ff57c3d3114c492e0894b94146db858c207088a8e8e51b8102354070507ee0c30029",
  "source": "import \"./RestoreToken.sol\";\npragma solidity ^0.4.17;\ncontract RestoreTokenPresale {\n    address owner;\n    mapping(address => uint) public contributions;\n    address[] public contributors;\n    address beneficiary;\n    uint public totalContributions;\n    bool public saleEnded = false;\n    RestoreToken public tokenReward;\n    uint public constant saleCap = 300000000000000;\n    uint public tokensSold = 0;\n    uint public etherCostOfEachToken = 0.000000003333333 * 1 ether;\n    \n    event FundTransfer(address backer, uint amount, bool isContribution);\n    \n    modifier onlyOwner() {\n        require(msg.sender == owner);\n        _;\n    }\n    \n    function RestoreTokenPresale(address _tokenAddress, address _beneficiary) public {\n        owner = msg.sender;\n        beneficiary = _beneficiary;\n        tokenReward = RestoreToken(_tokenAddress);\n    }\n    \n    function() public payable {\n        require(!saleEnded);\n        uint tokenValue = (msg.value / etherCostOfEachToken);\n        require(tokenValue > 0);\n        if(tokensSold + tokenValue < saleCap) {\n            /// record the contribution and release tokens\n            contributions[msg.sender] += msg.value;\n            totalContributions += msg.value;\n            addContributor(msg.sender);\n            tokensSold += tokenValue;\n            tokenReward.transfer(msg.sender, tokenValue);\n        } else {\n            /// calculate how many tokens are available to sell\n            uint tokensToSell = saleCap - tokensSold;\n            \n            /// calculate the ether cost of the remaining tokens\n            uint costForTokens = tokensToSell * etherCostOfEachToken;\n            \n            /// return the contributor's ether that can't be used\n            uint returnAmt = msg.value - costForTokens;\n            msg.sender.transfer(returnAmt);\n            \n            /// record the contribution and release tokens\n            contributions[msg.sender] += costForTokens;\n            totalContributions += costForTokens;\n            addContributor(msg.sender);\n            tokenReward.transfer(msg.sender, tokensToSell);\n            tokensSold += tokensToSell;\n            \n            /// end the sale\n            saleEnded = true;\n        }\n    }\n    \n    function addContributor(address _contributor) private {\n        bool _exists = false;\n        for (uint i = 0; i < contributors.length; i++) {\n            if(_contributor == contributors[i]) {\n                _exists = true;\n            }\n        }\n        if(!_exists) {\n            contributors.push(_contributor);\n        }\n    }\n    \n    function getNumberOfContributors() public constant returns(uint){\n        return contributors.length;\n    }\n    \n    function endSale() public onlyOwner {\n        if((saleCap - tokensSold) > 0) {\n            tokenReward.transfer(beneficiary, saleCap - tokensSold);\n        }\n        saleEnded = true;\n    }\n    \n    function withdraw() public onlyOwner {\n        address contractAddress = this;\n        beneficiary.transfer(contractAddress.balance);\n    }\n    \n}",
  "sourcePath": "/Users/kobyhastings/restore/REHTX/contracts/contracts/RestoreTokenPresale.sol",
  "compiler": {
    "name": "solc",
    "version": "0.4.18+commit.9cf6e910.Emscripten.clang"
  },
  "schemaVersion": "1.0.1",
  "updatedAt": "2017-11-10T18:57:01.908Z"
}